Microchip MPLAB XC8 Compiler V1.31 ()

Linker command line:

--edf=C:\Program Files (x86)\Microchip\xc8\v1.31\dat\en_msgs.txt -cs \
  -h+dist/default/production\Alarm_MotionSensor_MPLAB.X.production.sym \
  --cmf=dist/default/production\Alarm_MotionSensor_MPLAB.X.production.cmf \
  -z -Q16F628 -od:\Users\Pila\AppData\Local\Temp\s5tk.6 \
  -Mdist/default/production/Alarm_MotionSensor_MPLAB.X.production.map -E1 \
  -ver=XC8 -ASTACK=0B6h-0efh -pstack=STACK -ACONST=00h-0FFhx8 \
  -ACODE=00h-07FFh -ASTRCODE=00h-07FFh -AENTRY=00h-0FFhx8 \
  -ASTRING=00h-0FFhx8 -ACOMMON=070h-07Fh -ABANK0=020h-06Fh \
  -ABANK1=0A0h-0EFh -ABANK2=0120h-014Fh \
  -ARAM=020h-06Fh,0A0h-0EFh,0120h-014Fh \
  -AABS1=020h-07Fh,0A0h-0EFh,0120h-014Fh -ASFR0=00h-01Fh -ASFR1=080h-09Fh \
  -ASFR2=0100h-011Fh -ASFR3=0180h-01EFh \
  -preset_vec=00h,intentry=04h,init,end_init -ppowerup=CODE -pcinit=CODE \
  -pfunctab=CODE -ACONFIG=02007h-02007h -pconfig=CONFIG -DCONFIG=2 \
  -AIDLOC=02000h-02003h -pidloc=IDLOC -DIDLOC=2 -AEEDATA=00h-07Fh/02100h \
  -peeprom_data=EEDATA -DEEDATA=2 -DCODE=2 -DSTRCODE=2 -DSTRING=2 -DCONST=2 \
  -DENTRY=2 -k d:\Users\Pila\AppData\Local\Temp\s5tk.obj \
  dist/default/production\Alarm_MotionSensor_MPLAB.X.production.obj 

Object code version is 3.11

Machine type is 16F628



                Name                               Link     Load   Length Selector   Space Scale
d:\Users\Pila\AppData\Local\Temp\s5tk.obj
                end_init                             10       10        1        8       0
                reset_vec                             0        0        1        0       0
                config                             2007     2007        1     400E       0
dist/default/production\Alarm_MotionSensor_MPLAB.X.production.obj
                cinit                                11       11       1B        8       0
                intentry                              4        4        C        8       0
                text13                              38E      38E       33        8       0
                text12                              1E0      1E0       B5        8       0
                text11                              44A      44A       26        8       0
                text10                              4B2      4B2       1B        8       0
                text9                               295      295       8F        8       0
                text8                               470      470       25        8       0
                text7                               424      424       26        8       0
                text6                               495      495       1D        8       0
                text5                               4CD      4CD        E        8       0
                text4                               324      324       6A        8       0
                text3                               3C1      3C1       32        8       0
                text2                                2C       2C       E5        8       0
                text1                               111      111       CF        8       0
                maintext                            3F3      3F3       31        8       0
                cstackBANK0                          20       20       26       20       1
                cstackCOMMON                         70       70        E       70       1
                cstackBANK1                          A0       A0       16       A0       1
                dataBANK0                            4F       4F        8       20       1
                bssBANK0                             46       46        9       20       1
                idataBANK0                          4DB      4DB        8        8       0

TOTAL           Name                               Link     Load   Length     Space
        CLASS   STACK          

        CLASS   CONST          

        CLASS   CODE           
                end_init                             10       10        1         0
                cinit                                11       11       1B         0
                intentry                              4        4        C         0
                reset_vec                             0        0        1         0
                text13                              38E      38E       33         0
                text12                              1E0      1E0       B5         0
                text11                              44A      44A       26         0
                text10                              4B2      4B2       1B         0
                text9                               295      295       8F         0
                text8                               470      470       25         0
                text7                               424      424       26         0
                text6                               495      495       1D         0
                text5                               4CD      4CD        E         0
                text4                               324      324       6A         0
                text3                               3C1      3C1       32         0
                text2                                2C       2C       E5         0
                text1                               111      111       CF         0
                maintext                            3F3      3F3       31         0
                idataBANK0                          4DB      4DB        8         0

        CLASS   STRCODE        

        CLASS   ENTRY          

        CLASS   STRING         

        CLASS   COMMON         
                cstackCOMMON                         70       70        E         1

        CLASS   BANK0          
                cstackBANK0                          20       20       26         1
                dataBANK0                            4F       4F        8         1
                bssBANK0                             46       46        9         1

        CLASS   BANK1          
                cstackBANK1                          A0       A0       16         1

        CLASS   BANK2          

        CLASS   RAM            

        CLASS   ABS1           
                abs_s1                               7E       7E        2         1

        CLASS   SFR0           

        CLASS   SFR1           

        CLASS   SFR2           

        CLASS   SFR3           

        CLASS   CONFIG         
                config                             2007     2007        1         0

        CLASS   IDLOC          

        CLASS   EEDATA         

        CLASS   BANK3          



SEGMENTS        Name                           Load    Length   Top    Selector   Space  Class     Delta

                reset_vec                      000000  000001  000001         0       0  CODE        2
                intentry                       000004  0004DF  0004E3         8       0  CODE        2
                cstackBANK0                    000020  000037  000057        20       1  BANK0       1
                cstackCOMMON                   000070  00000E  00007E        70       1  COMMON      1
                cstackBANK1                    0000A0  000016  0000B6        A0       1  BANK1       1
                config                         002007  000001  002008      400E       0  CONFIG      2


UNUSED ADDRESS RANGES

        Name                Unused          Largest block    Delta
        BANK0            0057-006F             19           1
        BANK1            00B6-00EF             3A           1
        BANK2            0120-014F             30           1
        CODE             0001-0003              3           2
                         04E3-07FF            31D
        CONST            0001-0003              3           2
                         04E3-07FF            100
        EEDATA           2100-217F             80           2
        ENTRY            0001-0003              3           2
                         04E3-07FF            100
        IDLOC            2000-2003              4           2
        RAM              0057-006F             19           1
                         00B6-00EF             3A
                         0120-014F             30
        SFR0             0000-001F             20           1
        SFR1             0080-009F             20           1
        SFR2             0100-011F             20           1
        SFR3             0180-01EF             70           1
        STACK            00B6-00EF             3A           1
        STRCODE          0001-0003              3           2
                         04E3-07FF            31D
        STRING           0001-0003              3           2
                         04E3-07FF            100

                                  Symbol Table

_CMCON                               (abs)        001F
_CMCONbits                           (abs)        001F
_GIE                                 (abs)        005F
_INTCON                              (abs)        000B
_INTCONbits                          (abs)        000B
_OPTION_REG                          (abs)        0081
_PCON                                (abs)        008E
_PIE1                                (abs)        008C
_PIR1bits                            (abs)        000C
_PORTAbits                           (abs)        0005
_PORTBbits                           (abs)        0006
_T1CON                               (abs)        0010
_TMR1H                               (abs)        000F
_TMR1L                               (abs)        000E
_TRISA                               (abs)        0085
_TRISB                               (abs)        0086
_VRCON                               (abs)        009F
_VRCONbits                           (abs)        009F
__CFG_BOREN$OFF                      (abs)        0000
__CFG_CP$OFF                         (abs)        0000
__CFG_CPD$OFF                        (abs)        0000
__CFG_FOSC$INTOSCIO                  (abs)        0000
__CFG_LVP$OFF                        (abs)        0000
__CFG_MCLRE$ON                       (abs)        0000
__CFG_PWRTE$ON                       (abs)        0000
__CFG_WDTE$OFF                       (abs)        0000
__Habs1                              abs1         0000
__Hbank0                             bank0        0000
__Hbank1                             bank1        0000
__Hbank2                             bank2        0000
__Hbank3                             bank3        0000
__HbssBANK0                          bssBANK0     0000
__Hcinit                             cinit        002C
__Hclrtext                           clrtext      0000
__Hcode                              code         0000
__Hcommon                            common       0000
__Hconfig                            config       2008
__HcstackBANK0                       cstackBANK0  0000
__HcstackBANK1                       cstackBANK1  0000
__HcstackCOMMON                      cstackCOMMON 0000
__HdataBANK0                         dataBANK0    0000
__Heeprom_data                       eeprom_data  0000
__Hend_init                          end_init     0011
__Hfunctab                           functab      0000
__HidataBANK0                        idataBANK0   0000
__Hidloc                             idloc        0000
__Hinit                              init         0010
__Hintentry                          intentry     0010
__Hmaintext                          maintext     0000
__Hpowerup                           powerup      0000
__Hram                               ram          0000
__Hreset_vec                         reset_vec    0001
__Hsfr0                              sfr0         0000
__Hsfr1                              sfr1         0000
__Hsfr2                              sfr2         0000
__Hsfr3                              sfr3         0000
__Hstack                             stack        0000
__Hstrings                           strings      0000
__Htext                              text         0000
__Labs1                              abs1         0000
__Lbank0                             bank0        0000
__Lbank1                             bank1        0000
__Lbank2                             bank2        0000
__Lbank3                             bank3        0000
__LbssBANK0                          bssBANK0     0000
__Lcinit                             cinit        0011
__Lclrtext                           clrtext      0000
__Lcode                              code         0000
__Lcommon                            common       0000
__Lconfig                            config       2007
__LcstackBANK0                       cstackBANK0  0000
__LcstackBANK1                       cstackBANK1  0000
__LcstackCOMMON                      cstackCOMMON 0000
__LdataBANK0                         dataBANK0    0000
__Leeprom_data                       eeprom_data  0000
__Lend_init                          end_init     0010
__Lfunctab                           functab      0000
__LidataBANK0                        idataBANK0   0000
__Lidloc                             idloc        0000
__Linit                              init         0010
__Lintentry                          intentry     0004
__Lmaintext                          maintext     0000
__Lpowerup                           powerup      0000
__Lram                               ram          0000
__Lreset_vec                         reset_vec    0000
__Lsfr0                              sfr0         0000
__Lsfr1                              sfr1         0000
__Lsfr2                              sfr2         0000
__Lsfr3                              sfr3         0000
__Lstack                             stack        0000
__Lstrings                           strings      0000
__Ltext                              text         0000
__S0                                 (abs)        2008
__S1                                 (abs)        00B6
__S2                                 (abs)        0000
__S3                                 (abs)        0000
___int_sp                            stack        0000
___latbits                           (abs)        0000
___sp                                stack        0000
__end_of__initialization             cinit        002A
__end_of_encrypt                     text2        0111
__end_of_initnRF24L01                text4        038E
__end_of_interrupt_function          text8        0495
__end_of_main                        maintext     0424
__end_of_measureBatteryLevel         text3        03F3
__end_of_nRF24L01_SPI1byte           text7        044A
__end_of_nRF24L01_commandData        text6        04B2
__end_of_nRF24L01_commandSimple      text5        04DB
__end_of_sendReportToMainUnit        text1        01E0
__end_ofi1_encrypt                   text12       0295
__end_ofi1_measureBatteryLevel       text13       03C1
__end_ofi1_nRF24L01_SPI1byte         text11       0470
__end_ofi1_nRF24L01_commandData      text10       04CD
__end_ofi1_sendReportToMainUnit      text9        0324
__initialization                     cinit        0011
__pbssBANK0                          bssBANK0     0046
__pcstackBANK0                       cstackBANK0  0020
__pcstackBANK1                       cstackBANK1  00A0
__pcstackCOMMON                      cstackCOMMON 0070
__pdataBANK0                         dataBANK0    004F
__pidataBANK0                        idataBANK0   04DB
__pintentry                          intentry     0004
__pmaintext                          maintext     03F3
__ptext1                             text1        0111
__ptext10                            text10       04B2
__ptext11                            text11       044A
__ptext12                            text12       01E0
__ptext13                            text13       038E
__ptext2                             text2        002C
__ptext3                             text3        03C1
__ptext4                             text4        0324
__ptext5                             text5        04CD
__ptext6                             text6        0495
__ptext7                             text7        0424
__ptext8                             text8        0470
__ptext9                             text9        0295
__size_of_encrypt                    (abs)        0000
__size_of_initnRF24L01               (abs)        0000
__size_of_interrupt_function         (abs)        0000
__size_of_main                       (abs)        0000
__size_of_measureBatteryLevel        (abs)        0000
__size_of_nRF24L01_SPI1byte          (abs)        0000
__size_of_nRF24L01_commandData       (abs)        0000
__size_of_nRF24L01_commandSimple     (abs)        0000
__size_of_sendReportToMainUnit       (abs)        0000
__size_ofi1_encrypt                  (abs)        0000
__size_ofi1_measureBatteryLevel      (abs)        0000
__size_ofi1_nRF24L01_SPI1byte        (abs)        0000
__size_ofi1_nRF24L01_commandData     (abs)        0000
__size_ofi1_sendReportToMainUnit     (abs)        0000
_batteryLevel                        bssBANK0     0048
_data                                bssBANK0     004A
_encrypt                             text2        002C
_initnRF24L01                        text4        0324
_interrupt_function                  text8        0470
_key                                 dataBANK0    004F
_main                                maintext     03F3
_measureBatteryLevel                 text3        03C1
_nRF24L01_SPI1byte                   text7        0424
_nRF24L01_commandData                text6        0495
_nRF24L01_commandSimple              text5        04CD
_nRF24L01_lastStatus                 bssBANK0     0049
_sendReportToMainUnit                text1        0111
btemp                                (abs)        007E
encrypt@i                            cstackBANK0  003A
encrypt@k                            cstackBANK0  0039
encrypt@v                            cstackBANK0  003B
end_of_initialization                cinit        002A
i1_encrypt                           text12       01E0
i1_measureBatteryLevel               text13       038E
i1_nRF24L01_SPI1byte                 text11       044A
i1_nRF24L01_commandData              text10       04B2
i1_sendReportToMainUnit              text9        0295
i1encrypt@i                          cstackCOMMON 0071
i1encrypt@k                          cstackCOMMON 0070
i1encrypt@v                          cstackCOMMON 0072
i1measureBatteryLevel@result         cstackCOMMON 0071
i1nRF24L01_SPI1byte@i                cstackCOMMON 0071
i1nRF24L01_SPI1byte@spiByte          cstackCOMMON 0072
i1nRF24L01_commandData@command       cstackCOMMON 0076
i1nRF24L01_commandData@dataArray     cstackCOMMON 0073
i1nRF24L01_commandData@dataCounter   cstackCOMMON 0077
i1nRF24L01_commandData@dataLength    cstackCOMMON 0074
i1sendReportToMainUnit@encryptData   cstackBANK0  0031
i1sendReportToMainUnit@reportSubject cstackBANK0  0030
interrupt_function                   intentry     0004
intlevel0                            functab      0000
intlevel1                            functab      0000
intlevel2                            functab      0000
intlevel3                            functab      0000
intlevel4                            functab      0000
intlevel5                            functab      0000
ltemp                                (abs)        007E
ltemp0                               (abs)        007E
ltemp1                               (abs)        0082
ltemp2                               (abs)        0086
ltemp3                               (abs)        0080
measureBatteryLevel@result           cstackBANK0  003A
nRF24L01_SPI1byte@i                  cstackBANK0  003A
nRF24L01_SPI1byte@spiByte            cstackBANK0  003B
nRF24L01_commandData@command         cstackBANK0  0040
nRF24L01_commandData@dataArray       cstackBANK0  003C
nRF24L01_commandData@dataCounter     cstackBANK0  003F
nRF24L01_commandData@dataLength      cstackBANK0  003D
nRF24L01_commandSimple@command       cstackBANK0  003D
reset_vec                            reset_vec    0000
saved_w                              (abs)        007E
sendReportToMainUnit@counter         bssBANK0     0046
sendReportToMainUnit@encryptData     cstackBANK0  0042
sendReportToMainUnit@reportSubject   cstackBANK0  0041
stackhi                              (abs)        0000
stacklo                              (abs)        0000
start                                init         0010
start_initialization                 cinit        0011
ttemp                                (abs)        007E
ttemp0                               (abs)        007E
ttemp1                               (abs)        0081
ttemp2                               (abs)        0084
ttemp3                               (abs)        0087
ttemp4                               (abs)        007F
wtemp                                (abs)        007E
wtemp0                               (abs)        007E
wtemp1                               (abs)        0080
wtemp2                               (abs)        0082
wtemp3                               (abs)        0084
wtemp4                               (abs)        0086
wtemp5                               (abs)        0088
wtemp6                               (abs)        007F


FUNCTION INFORMATION:

 *************** function _main *****************
 Defined at:
		line 25 in file "main.c"
 Parameters:    Size  Location     Type
		None
 Auto vars:     Size  Location     Type
		None
 Return value:  Size  Location     Type
		None               void
 Registers used:
		wreg, fsr0l, fsr0h, status,2, status,0, btemp+1, pclath, cstack
 Tracked objects:
		On entry : 
		On exit  : 
		Unchanged: 
 Data sizes:     COMMON   BANK0   BANK1   BANK2
      Params:         0       0       0       0
      Locals:         0       0       0       0
      Temps:          0       0       0       0
      Totals:         0       0       0       0
Total ram usage:        0 bytes
 Hardware stack levels required when called:    7
 This function calls:
		_initnRF24L01
		_measureBatteryLevel
		_sendReportToMainUnit
 This function is called by:
		Startup code after reset
 This function uses a non-reentrant model


 *************** function _sendReportToMainUnit *****************
 Defined at:
		line 120 in file "main.c"
 Parameters:    Size  Location     Type
  reportSubjec    1    wreg     unsigned char 
 Auto vars:     Size  Location     Type
  reportSubjec    1   33[BANK0 ] unsigned char 
  encryptData     4   34[BANK0 ] unsigned int [2]
 Return value:  Size  Location     Type
		None               void
 Registers used:
		wreg, fsr0l, fsr0h, status,2, status,0, btemp+1, pclath, cstack
 Tracked objects:
		On entry : 
		On exit  : 
		Unchanged: 
 Data sizes:     COMMON   BANK0   BANK1   BANK2
      Params:         0       0       0       0
      Locals:         0       5       0       0
      Temps:          0       0       6       0
      Totals:         0       5       6       0
Total ram usage:       11 bytes
 Hardware stack levels used:    1
 Hardware stack levels required when called:    6
 This function calls:
		_encrypt
		_nRF24L01_commandData
 This function is called by:
		_main
 This function uses a non-reentrant model


 *************** function _encrypt *****************
 Defined at:
		line 3 in file "crypto.h"
 Parameters:    Size  Location     Type
  v               1    wreg     PTR unsigned int 
		 -> sendReportToMainUnit@encryptData(4), 
  k               1   25[BANK0 ] PTR unsigned int 
		 -> key(8), 
 Auto vars:     Size  Location     Type
  v               1   27[BANK0 ] PTR unsigned int 
		 -> sendReportToMainUnit@encryptData(4), 
  i               1   26[BANK0 ] char 
 Return value:  Size  Location     Type
		None               void
 Registers used:
		wreg, fsr0l, fsr0h, status,2, status,0, btemp+1
 Tracked objects:
		On entry : 
		On exit  : 
		Unchanged: 
 Data sizes:     COMMON   BANK0   BANK1   BANK2
      Params:         0       1       0       0
      Locals:         0       2       0       0
      Temps:          0       0      16       0
      Totals:         0       3      16       0
Total ram usage:       19 bytes
 Hardware stack levels used:    1
 Hardware stack levels required when called:    4
 This function calls:
		Nothing
 This function is called by:
		_sendReportToMainUnit
 This function uses a non-reentrant model


 *************** function _measureBatteryLevel *****************
 Defined at:
		line 173 in file "main.c"
 Parameters:    Size  Location     Type
		None
 Auto vars:     Size  Location     Type
  result          1   26[BANK0 ] unsigned char 
 Return value:  Size  Location     Type
		None               void
 Registers used:
		wreg, status,2, status,0
 Tracked objects:
		On entry : 
		On exit  : 
		Unchanged: 
 Data sizes:     COMMON   BANK0   BANK1   BANK2
      Params:         0       0       0       0
      Locals:         0       1       0       0
      Temps:          0       1       0       0
      Totals:         0       2       0       0
Total ram usage:        2 bytes
 Hardware stack levels used:    1
 Hardware stack levels required when called:    4
 This function calls:
		Nothing
 This function is called by:
		_main
 This function uses a non-reentrant model


 *************** function _initnRF24L01 *****************
 Defined at:
		line 58 in file "main.c"
 Parameters:    Size  Location     Type
		None
 Auto vars:     Size  Location     Type
		None
 Return value:  Size  Location     Type
		None               void
 Registers used:
		wreg, fsr0l, fsr0h, status,2, status,0, pclath, cstack
 Tracked objects:
		On entry : 
		On exit  : 
		Unchanged: 
 Data sizes:     COMMON   BANK0   BANK1   BANK2
      Params:         0       0       0       0
      Locals:         0       0       0       0
      Temps:          0       2       0       0
      Totals:         0       2       0       0
Total ram usage:        2 bytes
 Hardware stack levels used:    1
 Hardware stack levels required when called:    6
 This function calls:
		_nRF24L01_commandData
		_nRF24L01_commandSimple
 This function is called by:
		_main
 This function uses a non-reentrant model


 *************** function _nRF24L01_commandSimple *****************
 Defined at:
		line 15 in file "nrf24l01.c"
 Parameters:    Size  Location     Type
  command         1    wreg     unsigned char 
 Auto vars:     Size  Location     Type
  command         1   29[BANK0 ] unsigned char 
 Return value:  Size  Location     Type
		None               void
 Registers used:
		wreg, fsr0l, fsr0h, status,2, status,0, pclath, cstack
 Tracked objects:
		On entry : 
		On exit  : 
		Unchanged: 
 Data sizes:     COMMON   BANK0   BANK1   BANK2
      Params:         0       0       0       0
      Locals:         0       1       0       0
      Temps:          0       1       0       0
      Totals:         0       2       0       0
Total ram usage:        2 bytes
 Hardware stack levels used:    1
 Hardware stack levels required when called:    5
 This function calls:
		_nRF24L01_SPI1byte
 This function is called by:
		_initnRF24L01
 This function uses a non-reentrant model


 *************** function _nRF24L01_commandData *****************
 Defined at:
		line 22 in file "nrf24l01.c"
 Parameters:    Size  Location     Type
  command         1    wreg     unsigned char 
  dataArray       1   28[BANK0 ] PTR unsigned char 
		 -> data(5), 
  dataLength      1   29[BANK0 ] unsigned char 
 Auto vars:     Size  Location     Type
  command         1   32[BANK0 ] unsigned char 
  dataCounter     1   31[BANK0 ] unsigned char 
 Return value:  Size  Location     Type
		None               void
 Registers used:
		wreg, fsr0l, fsr0h, status,2, status,0, pclath, cstack
 Tracked objects:
		On entry : 
		On exit  : 
		Unchanged: 
 Data sizes:     COMMON   BANK0   BANK1   BANK2
      Params:         0       2       0       0
      Locals:         0       2       0       0
      Temps:          0       1       0       0
      Totals:         0       5       0       0
Total ram usage:        5 bytes
 Hardware stack levels used:    1
 Hardware stack levels required when called:    5
 This function calls:
		_nRF24L01_SPI1byte
 This function is called by:
		_initnRF24L01
		_sendReportToMainUnit
 This function uses a non-reentrant model


 *************** function _nRF24L01_SPI1byte *****************
 Defined at:
		line 5 in file "nrf24l01.c"
 Parameters:    Size  Location     Type
  spiByte         1    wreg     PTR unsigned char 
		 -> nRF24L01_commandData@command(1), nRF24L01_commandSimple@command(1), data(5), 
 Auto vars:     Size  Location     Type
  spiByte         1   27[BANK0 ] PTR unsigned char 
		 -> nRF24L01_commandData@command(1), nRF24L01_commandSimple@command(1), data(5), 
  i               1   26[BANK0 ] unsigned char 
 Return value:  Size  Location     Type
		None               void
 Registers used:
		wreg, fsr0l, fsr0h, status,2, status,0
 Tracked objects:
		On entry : 
		On exit  : 
		Unchanged: 
 Data sizes:     COMMON   BANK0   BANK1   BANK2
      Params:         0       0       0       0
      Locals:         0       2       0       0
      Temps:          0       1       0       0
      Totals:         0       3       0       0
Total ram usage:        3 bytes
 Hardware stack levels used:    1
 Hardware stack levels required when called:    4
 This function calls:
		Nothing
 This function is called by:
		_nRF24L01_commandSimple
		_nRF24L01_commandData
 This function uses a non-reentrant model


 *************** function _interrupt_function *****************
 Defined at:
		line 100 in file "main.c"
 Parameters:    Size  Location     Type
		None
 Auto vars:     Size  Location     Type
		None
 Return value:  Size  Location     Type
		None               void
 Registers used:
		wreg, fsr0l, fsr0h, status,2, status,0, btemp+1, pclath, cstack
 Tracked objects:
		On entry : 
		On exit  : 
		Unchanged: 
 Data sizes:     COMMON   BANK0   BANK1   BANK2
      Params:         0       0       0       0
      Locals:         0       0       0       0
      Temps:          0       4       0       0
      Totals:         0       4       0       0
Total ram usage:        4 bytes
 Hardware stack levels used:    1
 Hardware stack levels required when called:    3
 This function calls:
		i1_measureBatteryLevel
		i1_sendReportToMainUnit
 This function is called by:
		Interrupt level 1
 This function uses a non-reentrant model


 *************** function i1_sendReportToMainUnit *****************
 Defined at:
		line 120 in file "main.c"
 Parameters:    Size  Location     Type
  reportSubjec    1    wreg     unsigned char 
 Auto vars:     Size  Location     Type
  reportSubjec    1   16[BANK0 ] unsigned char 
  sendReportTo    4   17[BANK0 ] unsigned int [2]
 Return value:  Size  Location     Type
		None               void
 Registers used:
		wreg, fsr0l, fsr0h, status,2, status,0, btemp+1, pclath, cstack
 Tracked objects:
		On entry : 
		On exit  : 
		Unchanged: 
 Data sizes:     COMMON   BANK0   BANK1   BANK2
      Params:         0       0       0       0
      Locals:         0       5       0       0
      Temps:          6       0       0       0
      Totals:         6       5       0       0
Total ram usage:       11 bytes
 Hardware stack levels used:    1
 Hardware stack levels required when called:    2
 This function calls:
		i1_encrypt
		i1_nRF24L01_commandData
 This function is called by:
		_interrupt_function
 This function uses a non-reentrant model


 *************** function i1_nRF24L01_commandData *****************
 Defined at:
		line 22 in file "nrf24l01.c"
 Parameters:    Size  Location     Type
  command         1    wreg     unsigned char 
  dataArray       1    3[COMMON] PTR unsigned char 
		 -> data(5), 
  dataLength      1    4[COMMON] unsigned char 
 Auto vars:     Size  Location     Type
  command         1    6[COMMON] unsigned char 
  nRF24L01_com    1    7[COMMON] unsigned char 
 Return value:  Size  Location     Type
		None               void
 Registers used:
		wreg, fsr0l, fsr0h, status,2, status,0, pclath, cstack
 Tracked objects:
		On entry : 
		On exit  : 
		Unchanged: 
 Data sizes:     COMMON   BANK0   BANK1   BANK2
      Params:         2       0       0       0
      Locals:         2       0       0       0
      Temps:          1       0       0       0
      Totals:         5       0       0       0
Total ram usage:        5 bytes
 Hardware stack levels used:    1
 Hardware stack levels required when called:    1
 This function calls:
		i1_nRF24L01_SPI1byte
 This function is called by:
		i1_sendReportToMainUnit
 This function uses a non-reentrant model


 *************** function i1_nRF24L01_SPI1byte *****************
 Defined at:
		line 5 in file "nrf24l01.c"
 Parameters:    Size  Location     Type
  spiByte         1    wreg     PTR unsigned char 
		 -> nRF24L01_commandData@command(1), nRF24L01_commandSimple@command(1), data(5), 
 Auto vars:     Size  Location     Type
  spiByte         1    2[COMMON] PTR unsigned char 
		 -> nRF24L01_commandData@command(1), nRF24L01_commandSimple@command(1), data(5), 
  nRF24L01_SPI    1    1[COMMON] unsigned char 
 Return value:  Size  Location     Type
		None               void
 Registers used:
		wreg, fsr0l, fsr0h, status,2, status,0
 Tracked objects:
		On entry : 
		On exit  : 
		Unchanged: 
 Data sizes:     COMMON   BANK0   BANK1   BANK2
      Params:         0       0       0       0
      Locals:         2       0       0       0
      Temps:          1       0       0       0
      Totals:         3       0       0       0
Total ram usage:        3 bytes
 Hardware stack levels used:    1
 This function calls:
		Nothing
 This function is called by:
		i1_nRF24L01_commandData
 This function uses a non-reentrant model


 *************** function i1_encrypt *****************
 Defined at:
		line 3 in file "crypto.h"
 Parameters:    Size  Location     Type
  v               1    wreg     PTR unsigned int 
		 -> sendReportToMainUnit@encryptData(4), 
  k               1    0[COMMON] PTR unsigned int 
		 -> key(8), 
 Auto vars:     Size  Location     Type
  v               1    2[COMMON] PTR unsigned int 
		 -> sendReportToMainUnit@encryptData(4), 
  encrypt         1    1[COMMON] char 
 Return value:  Size  Location     Type
		None               void
 Registers used:
		wreg, fsr0l, fsr0h, status,2, status,0, btemp+1
 Tracked objects:
		On entry : 
		On exit  : 
		Unchanged: 
 Data sizes:     COMMON   BANK0   BANK1   BANK2
      Params:         1       0       0       0
      Locals:         2       0       0       0
      Temps:          0      16       0       0
      Totals:         3      16       0       0
Total ram usage:       19 bytes
 Hardware stack levels used:    1
 This function calls:
		Nothing
 This function is called by:
		i1_sendReportToMainUnit
 This function uses a non-reentrant model


 *************** function i1_measureBatteryLevel *****************
 Defined at:
		line 173 in file "main.c"
 Parameters:    Size  Location     Type
		None
 Auto vars:     Size  Location     Type
  measureBatte    1    1[COMMON] unsigned char 
 Return value:  Size  Location     Type
		None               void
 Registers used:
		wreg, status,2, status,0
 Tracked objects:
		On entry : 
		On exit  : 
		Unchanged: 
 Data sizes:     COMMON   BANK0   BANK1   BANK2
      Params:         0       0       0       0
      Locals:         1       0       0       0
      Temps:          1       0       0       0
      Totals:         2       0       0       0
Total ram usage:        2 bytes
 Hardware stack levels used:    1
 This function calls:
		Nothing
 This function is called by:
		_interrupt_function
 This function uses a non-reentrant model



MODULE INFORMATION

Module		Function		Class		Link	Load	Size
nrf24l01.c
		_nRF24L01_comma		CODE           	04CD	0000	14
		_nRF24L01_SPI1b		CODE           	0424	0000	38
		_nRF24L01_comma		CODE           	0495	0000	29

nrf24l01.c estimated size: 81

shared
		i1_measureBatte		CODE           	038E	0000	51
		i1_nRF24L01_SPI		CODE           	044A	0000	38
		i1_nRF24L01_com		CODE           	04B2	0000	27
		__initializatio		CODE           	0011	0000	25
		i1_sendReportTo		CODE           	0295	0000	143
		i1_encrypt     		CODE           	01E0	0000	181

shared estimated size: 465

crypto.h
		_encrypt       		CODE           	002C	0000	229

crypto.h estimated size: 229

main.c
		_interrupt_func		CODE           	0470	0000	37
		_main          		CODE           	03F3	0000	49
		_initnRF24L01  		CODE           	0324	0000	106
		_measureBattery		CODE           	03C1	0000	50
		_sendReportToMa		CODE           	0111	0000	207

main.c estimated size: 449

